:100000000C9432080C9479080C9479080C947908B3
:100010000C9479080C9479080C9479080C9479085C
:100020000C9479080C9479080C94A8280C947B29DA
:100030000C94B31F0C9479080C9479080C947908EB
:100040000C9479080C9479080C9479080C9479082C
:100050000C9479080C9414200C9479080C94790869
:100060000C9479080C9479080C9479080C9479080C
:100070000C9479080C9479080C9479080C947908FC
:100080000C9479080C9479080C9479080C947908EC
:100090000C9479080C9479080C9479080C947908DC
:1000A0000C9479080C9479080C94790829003A008A
:1000B0003B003C003D003E003F004000410042004C
:1000C00043004400450000004700480035001E0082
:1000D0001F0020002100220023002400250026000C
:1000E00027002D002E002A004C004B002B0014008E
:1000F0001A000800150017001C0018000C00120060
:1001000013002F003000310000004E00E400040016
:100110001600070009000A000B000D000E000F007A
:10012000330034002800000000004A00E1003100E4
:100130001D001B000600190005001100100036000C
:100140003700380064620000520001513900E300BA
:10015000E2000000000000002C0000000000000091
:10016000E600E3000000500051004F000070010065
:100170000100010001000100010001000100010077
:100180000100010001000000010001000100010068
:100190000100010001000100010001000100010057
:1001A00001000100010001000100010001003470A4
:1001B000357036703770387039703A703B700100A6
:1001C0000100010001000100000001000100010028
:1001D0000100010001000100010001000100010017
:1001E0000100010001000000000001000100010009
:1001F00001000100010001000100010001000100F7
:1002000001000100010000000100010001000100E7
:1002100001000000000000000100000000000000DC
:1002200001000100000001000100010001000100C7
:1002300001000100010001000100010001000100B6
:1002400001000100010000000100010001000100A7
:100250000100010001000100010001000100010096
:100260000100010001000100010001000100010086
:100270000100010001000100010001000100010076
:100280000100010001000100000001000100010067
:100290000100010001000100010001000100010056
:1002A0000100010001000000000001000100010048
:1002B0000100010001000100010001000100010036
:1002C0000100010001000000010001000100010027
:1002D000010000000000000001000000000000001C
:1002E0000100010000000100010001000100010007
:1002F00001000100010001000100010001000100F6
:1003000001000100010000000100010001000100E6
:1003100001000100010001000100010001000100D5
:1003200001000100010001000100010001000100C5
:1003300001000100010001000100010001000100B5
:1003400001000100010001000000010001000100A6
:100350000100010001000100010001000100010095
:100360000100010001000000000001000100010087
:100370000100010001000100010001000100010075
:100380000100010001000000010001000100010066
:10039000010000000000000001000000000000005B
:1003A0000100010000000100010001000100010046
:1003B0000100010001000100010001000100010035
:1003C0000100010001000000010001000100010026
:1003D0000100010001000100010001000100010015
:1003E0000100010001000100010001000100010005
:1003F00001000100010001000100010001000100F5
:1004000001000100010001000000010001000100E5
:1004100001000100010001000100010001000100D4
:1004200001000100010000000000010001000100C6
:1004300001000100010001000100010001000100B4
:1004400001000100010000000100010001000100A5
:10045000010000000000000001000000000000009A
:100460000100010000000100010001000100010085
:100470000100010001000100010001000100010074
:100480000100010001000000010001000100010065
:100490000100010001000100010001000100010054
:1004A0000100010001000100010001000100010044
:1004B0000100010001000100010001000100010034
:1004C0000100010001000100000001000100010025
:1004D0000100010001000100010001000100010014
:1004E0000100010001000000000001000100010006
:1004F00001000100010001000100010001000100F4
:1005000001000100010000000100010001000100E4
:1005100001000000000000000100000000000000D9
:1005200001000100000001000100010001000100C4
:1005300001000100010001000100010001000100B3
:1005400001000100010000000100010001000100A4
:100550000100010001000100010001000100010093
:100560000100010001000100010001000100010083
:100570000100010001000100010001000100010073
:100580000100010001000100000001000100010064
:100590000100010001000100010001000100010053
:1005A0000100010001000000000001000100010045
:1005B0000100010001000100010001000100010033
:1005C0000100010001000000010001000100010024
:1005D0000100000000000000010000000000000019
:1005E0000100010000000100010001000100010004
:1005F00001000100010001000100010001000100F3
:1006000001000100010000000100010001000100E3
:1006100001000100010001000100010001000100D2
:1006200001000100010001000100010001000100C2
:1006300001000100010001000100010001000100B2
:1006400001000100010001000000010001000100A3
:100650000100010001000100010001000100010092
:100660000100010001000000000001000100010084
:100670000100010001000100010001000100010072
:100680000100010001000000010001000100010063
:100690000100000000000000010000000000000058
:1006A0000100010000000100010001000100010043
:1006B0000100010001000100010001000100010032
:1006C0000100010001000000010001000100010023
:1006D0000100010001000100010001000100010012
:1006E0000100010001000100010001000100010002
:1006F00001000100010001000100010001000100F2
:1007000001000100010001000000010001000100E2
:1007100001000100010001000100010001000100D1
:1007200001000100010000000000010001000100C3
:1007300001000100010001000100010001000100B1
:1007400001000100010000000100010001000100A2
:100750000100000000000000010000000000000097
:100760000100010000000100010001000100010082
:100770000100010001000100010001000100010071
:100780000100010001000000010001000100010062
:100790000100010001000100010001000100010051
:1007A0000100010001000100010001000100010041
:1007B0000100010001000100010001000100010031
:1007C0000100010001000100000001000100010022
:1007D0000100010001000100010001000100010011
:1007E0000100010001000000000001000100010003
:1007F00001000100010001000100010001000100F1
:1008000001000100010000000100010001000100E1
:1008100001000000000000000100000000000000D6
:1008200001000100000001000100010001000100C1
:1008300001000100010001000100010001000100B0
:1008400001000100010000000100010001000100A1
:100850000100010001000100010001000100010090
:100860000100010001000100010001000100010080
:100870000100010001000100010001000100010070
:100880000100010001000100000001000100010061
:100890000100010001000100010001000100010050
:1008A0000100010001000000000001000100010042
:1008B0000100010001000100010001000100010030
:1008C0000100010001000000010001000100010021
:1008D0000100000000000000010000000000000016
:1008E0000100010000000100010001000100010001
:1008F00001000100010001000100010001000100F0
:1009000001000100010000000100010001000100E0
:1009100001000100010001000100010001000100CF
:1009200001000100010001000100010001000100BF
:1009300001000100010001000100010001000100AF
:1009400001000100010001000000010001000100A0
:10095000010001000100010001000100010001008F
:100960000100010001000000000001000100010081
:10097000010001000100010001000100010001006F
:100980000100010001000000010001000100010060
:100990000100000000000000010000000000000055
:1009A0000100010000000100010001000100010040
:1009B000010001000100010001000100010001002F
:1009C0000100010001000000010001000100010020
:1009D000010001000100010001000100010001000F
:1009E00001000100010001000100010001000100FF
:1009F00001000100010001000100010001000100EF
:100A000001000100010001000000010001000100DF
:100A100001000100010001000100010001000100CE
:100A200001000100010000000000010001000100C0
:100A300001000100010001000100010001000100AE
:100A4000010001000100000001000100010001009F
:100A50000100000000000000010000000000000094
:100A6000010001000000010001000100010001007F
:100A7000010001000100010001000100010001006E
:100A8000010001000100000001000100010001005F
:100A9000010001000100010001000100010001004E
:100AA000010001000100010001000100010001003E
:100AB000010001000100010001000100010001002E
:100AC000010001000100010000000100010001001F
:100AD000010001000100010001000100010001000E
:100AE0000100010001000000000001000100010000
:100AF00001000100010001000100010001000100EE
:100B000001000100010000000100010001000100DE
:100B100001000000000000000100000000000000D3
:100B200001000100000001000100010001000100BE
:100B300001000100010001000100010001000100AD
:100B4000010001000100000001000100010001009E
:100B5000010001000100010001000100010001008D
:100B6000010001000100010001000100010001007D
:100B7000010001000100010001000100010001006D
:100B8000010001000100010000000100010001005E
:100B9000010001000100010001000100010001004D
:100BA000010001000100000000000100010001003F
:100BB000010001000100010001000100010001002D
:100BC000010001000100000001000100010001001E
:100BD0000100000000000000010000000000000013
:100BE00001000100000001000100010001000100FE
:100BF00001000100010001000100010001000100ED
:100C000001000100010000000100010001000100DD
:100C100001000100010001000100010001000100CC
:100C200001000100010001000100010001000100BC
:100C300001000100010001000100010001000100AC
:100C4000010001000100010000000100010001009D
:100C5000010001000100010001000100010001008C
:100C6000010001000100000000000100010001007E
:100C7000010001000100010001000100010001006C
:100C8000010001000100000001000100010001005D
:100C90000100000000000000010000000000000052
:100CA0000100010000000100010001006432146431
:100CB0003214783C1E1E140A0500000000010101D8
:100CC0000202030405050607090A0B0C0E0F111298
:100CD000141517191B1D1F212325282A2C2F3134E9
:100CE00036393B3E414346494C4F5255585A5D6157
:100CF00064676A6D707376797C7F8386898C8F9246
:100D000095989B9EA2A5A7AAADB0B3B6B9BCBEC12B
:100D1000C4C6C9CBCED0D3D5D7DADCDEE0E2E4E678
:100D2000E8EAEBEDEEF0F1F3F4F5F6F8F9FAFAFB98
:100D3000FCFDFDFEFEFEFFFFFFFFFFFFFFFEFEFED0
:100D4000FDFDFCFBFAFAF9F8F6F5F4F3F1F0EEED3F
:100D5000EBEAE8E6E4E2E0DEDCDAD7D5D3D0CECBCE
:100D6000C9C6C4C1BEBCB9B6B3B0ADAAA7A5A29E40
:100D70009B9895928F8C898683807C797673706D31
:100D80006A6764615D5A5855524F4C494643413E2B
:100D90003B393634312F2C2A282523211F1D1B19BE
:100DA00017151412110F0E0C0B0A0907060505047E
:100DB0000302020101010000000000000000010127
:100DC000010101010101010202020202020202020A
:100DD00003030303030303030404040404040505D9
:100DE000050505060606060607070707080808089A
:100DF0000909090A0A0A0A0B0B0B0C0C0C0D0D0D44
:100E00000E0E0F0F0F1010111111121213131414D4
:100E1000151516161717181819191A1A1B1C1C1D48
:100E20001D1E1F1F2020212222232425252627279F
:100E300028292A2B2B2C2D2E2F2F303132333435CD
:100E400036363738393A3B3C3D3E3F4041424344D9
:100E5000464748494A4B4C4D4F50515253555657AF
:100E6000585A5B5C5E5F606263646667696A6C6D5A
:100E70006E707173747678797B7C7E8081838486D2
:100E8000888A8B8D8F91929496989A9B9D9FA1A30F
:100E9000A5A7A9ABADAFB1B3B5B7B9BBBDBFC1C411
:100EA000C6C8CACCCFD1D3D6D8DADCDFE1E4E6E8D5
:100EB000EBEDF0F2F5F7FAFCFF12036B0065007939
:100EC0000062006F00610072006400000016037190
:100ED000006D006B006200750069006C00640065C5
:100EE00000720000000403090409026D00040100FF
:100EF000A0FA090400000103010100092111010009
:100F0000012240000705810308000A0904010001CD
:100F100003010200092111010001224D0007058291
:100F20000308000A0904020001030000000921115E
:100F30000100012236000705830308000A090403A3
:100F400000010300000009211101000122390007FE
:100F50000584032000011201100100000008EDFECD
:100F6000606001000102000105010906A1010507F9
:100F700019E029E71500250195087501810205088A
:100F800019012905950575019102950175039101D6
:100F90000507190029F71500250195F8750181024B
:100FA000C005010980A10185021601002603001A6F
:100FB00081002A8300751095018100C0050C09018C
:100FC000A1018503160100269C021A01002A9C0239
:100FD000751095018100C005010902A1010901A157
:100FE00000050919012905150025019505750181DF
:100FF000029501750381010501093009311581252B
:101000007F95027508810609381581257F95017540
:10101000088106050C0A38021581257F950175089F
:101020008106C0C005010906A101050719E029E7ED
:10103000150025019508750181029501750881014A
:10104000050819012905950575019102950175039A
:1010500091010507190029FF150026FF0095067567
:10106000088100C011241FBECFEFDAE0DEBFCDBF84
:1010700004B603FE27C08091B5029091B602A091FC
:10108000B702B091B8028730904BA740B04BD1F473
:101090001092B5021092B6021092B7021092B802E6
:1010A00014BE84B7877F84BF0FB6F894A89580914B
:1010B0006000886180936000109260000FBEE0E0E5
:1010C000F8E3099511E0A0E0B1E0E6E0FAE502C03E
:1010D00005900D92AE33B107D9F722E0AEE3B1E04F
:1010E00001C01D92A53BB207E1F70E94FC250C94BC
:1010F000CC2C0C94000090E080E0089508950895B1
:1011000081E00895089581E008950C9480080E947C
:1011100000182FEF84E39CE0215080409040E1F7DD
:1011200000C000000C943720EF92FF920F931F93A2
:10113000CF93DF937C01DC010D911C91119780917D
:101140009501811143C012968C918823D1F1C80179
:101150000E94821DC82F682FC8010E942E1DB80151
:101160008C2F0E94FF09EC01B7010E94850888239B
:1011700009F468C0B701CE010E94090C882309F464
:1011800061C0CE33B0E7DB0770F4C433E0E7DE07BD
:1011900010F5C130F0E7DF0709F45CC050F5C11568
:1011A000D04709F44AC081E0809340018093410117
:1011B000C701DF91CF911F910F91FF90EF900C9499
:1011C0008308C8010E945A1DC82FC9CFC8010E94B8
:1011D000821DB801C6CFFE01E553F047D701129634
:1011E0008C91E930F10508F040C0E253F34D0C94C6
:1011F0007E2CCE01825090474397A8F6F70182815A
:101200008823B1F20E94441F811102C00E94231F53
:101210000E94611F90E09093A7028093A602FE01B6
:10122000E350F0478091A6028160E231F10508F0B9
:1012300047C0E952F34D0C947E2CF7018281811155
:101240000E94870880E0DF91CF911F910F91FF905E
:10125000EF900895D70112968C91882399F380918D
:101260003702816080933702EDCF882359F30E94C3
:101270005910E8CF882331F30E944F10E3CF882321
:1012800009F30E942C0FDECF8823E1F20E94440F65
:10129000D9CF8823B9F20E94630FD4CF882391F26B
:1012A0000E947B0FCFCF882369F20E94930FCACF91
:1012B000882341F20E94AB0FC5CF8091A6028260C5
:1012C0008093A6028091A6020E94651F0E940018CA
:1012D000B9CF8091A6028460F3CF8091A602886086
:1012E000EFCF8091A6028061EBCF8091A602806251
:1012F000E7CF8091A6028064E3CF8091A602806848
:10130000DFCF8091A6028C60DBCF8091A6028E7F1A
:10131000D7CF8091A6028D7FD3CF8091A6028B7FFD
:10132000CFCF8091A602877FCBCF8091A6028F7E00
:10133000C7CF8091A6028F7DC3CF8091A6028F7BFD
:10134000BFCF8091A6028F77BBCF8091A602837F0B
:10135000B7CF9091A602892F97FB87F98058B0CF1D
:10136000882361F0109240010E94E31F90933F0197
:1013700080933E0182E00E94651564CF8091400118
:1013800081110FC080913E0190913F010E94EF1F9B
:10139000883C910530F486E20E943A1486E20E946D
:1013A000161582E00E946C154DCF882351F01092E3
:1013B00041010E94E31F90933F0180933E0180E230
:1013C000DACF8091410181110FC080913E0190914F
:1013D0003F010E94EF1F883C910530F487E20E9494
:1013E0003A1487E20E94161580E2DCCF0C94580C68
:1013F0000C945A0C0C9482080C94FA090895E72F67
:10140000F0E096E0899FE00DF11D112484E0EE0FDD
:10141000FF1F8A95E1F7E60FF11DEE0FFF1FE45560
:10142000FF4F859194910895FC01EE0FFF1FE45545
:10143000F34F8591949108950E94FF090E948D0BAE
:101440009C01811540E4940708F097C0211580E3C2
:10145000380708F0FAC0203E310508F074C0203C7F
:10146000310508F0E5C0283A310588F4253A310500
:1014700008F0E2C02130310509F477C0C9010497B2
:10148000813A910508F471C030E020E06EC0C901D6
:10149000885A91094597C0F7283A310509F4FEC0EA
:1014A000293A310509F4FDC02A3A310509F4FCC096
:1014B0002B3A310509F4FBC02C3A310509F4FAC086
:1014C0002B3B310509F4F9C02C3B310509F4F8C078
:1014D0002D3A310509F4F7C0203B310509F4F6C077
:1014E0002E3A310509F4F5C02F3A310509F4F4C05C
:1014F000213B310509F4F3C0223B310509F4F2C068
:10150000233B310509F4F1C0243B310509F4F0C057
:10151000253B310509F4EFC0263B310509F4EEC047
:10152000273B310509F4EDC0283B310509F4ECC037
:10153000293B310509F4EBC02A3B310509F4EAC027
:1015400020E034E412C0211590E2390780F42F3FE7
:10155000310509F050F4283E310538F0C901805FAB
:1015600091093065409708F08FCFC9010895C901EE
:101570009F700E94140A9C01F8CF8115944508F0D1
:1015800041C0211583E5380708F06AC0211592E5AE
:10159000390738F5211541E5340708F05CC02115FD
:1015A00080E5380708F454C0C90134E09695879562
:1015B0003A95E1F78370422F46954695437090E245
:1015C000499FA0011124582B822F837021E030E025
:1015D00002C0220F331F8A95E2F7242B352B3C687B
:1015E000C4CFC9018370992741E050E002C0440F85
:1015F000551F8A95E2F72695269580E2289F90014F
:101600001124EBCF211596E5390748F4922F88274E
:1016100021153545C8F59C01246F306AA6CFC90154
:1016200090563F708115904108F02ECF30629DCFCB
:10163000C901805C91099DCF253A310549F1263ACF
:10164000310549F522E830E490CF3327306C8DCF57
:101650003F70306A8ACF322F2227216F306A85CFC0
:10166000C9018370992741E050E002C0440F551F23
:101670008A95E2F72695269580E2289F900111240D
:10168000242B352B3A6871CF88279F719C01CECFD0
:1016900021E830E46ACF23E830E467CF22EE34E477
:1016A00064CF29EE34E461CF2AEE34E45ECF25EB3B
:1016B00034E45BCF26EB34E458CF23EB34E455CF4E
:1016C00024EB34E452CF27EB34E44FCF2CEC34E45A
:1016D0004CCF2DEC34E449CF23E835E446CF2AE85B
:1016E00035E443CF22E935E440CF24E935E43DCF6A
:1016F00021E236E43ACF23E236E437CF24E236E47F
:1017000034CF25E236E431CF26E236E42ECF27E28D
:1017100036E42BCF2AE236E428CF803E910581F1D2
:10172000C8F48133910509F462C048F48932910507
:1017300009F456C08A32910509F460C008958933CE
:101740009105B9F082389105A1F08533910509F42E
:1017500040C00895863E910561F138F4823E9105BE
:10176000B1F0833E9105E1F00895873E910551F176
:1017700008952091A6022370D9F080EE90E008959C
:101780002091A60220FF14C089E390E008952091E3
:10179000A60222FF0DC024FD09C083EE90E008954B
:1017A0002091A60222FD31C024FF02C090E080E01B
:1017B00008952091A60223FFFBCF24FDF7CF87EEEB
:1017C00090E008952091A60223FFEECF86EE90E0F0
:1017D00008952091A60225FFEBCF89E290E00895BD
:1017E0002091A60225FFE4CF85E390E008952091A3
:1017F000A60226FFDDCF8AE290E008952091A6029E
:1018000026FFD6CF81E390E0089582EE90E0089520
:1018100008950F931F93CF938C01FB018281811157
:1018200006C0C1E08C2FCF911F910F910895C091F8
:101830004F01C11125C00531104799F70E94080CCE
:1018400081E080934F010E94E31F90934E018093AB
:101850004D011092420110924401109243011092E6
:1018600046011092450110924801109247011092D2
:101870004A011092490110924C0110924B01D2CFB3
:1018800080914D0190914E010E94EF1F883C91057F
:1018900040F680914201E82FF0E0EE0FFF1FED5B74
:1018A000FE4F118300838F5F80934201C0E0BACF67
:1018B0000C947E080C947F0885B7806885BF85B737
:1018C000806885BFA4E2B1E061E070E08D91E82F0F
:1018D000E295EF70F0E041A18F709B0101C0220FF3
:1018E0008A95EAF7922F9095942391A382A1822B57
:1018F00082A381E0AA32B80749F7A4E1B1E061E030
:1019000070E08D91E82FE295EF70F0E041A18F70CB
:101910009B0101C0220F8A95EAF7922F909594239C
:1019200091A382A1822B82A381E0A432B80749F758
:10193000ECE5F1E0A0E5B1E088E691E011921192CA
:101940001D921D928E179F07C9F70C94F6092F92CE
:101950003F924F925F926F927F928F929F92AF923F
:10196000BF92CF92DF92EF92FF920F931F93CF938C
:10197000DF9300E511E084E2C82E81E0D82E180143
:10198000EE24E394F12C66246394D1018D909D9014
:101990001D011E921E92E60189916E01E82FE295CB
:1019A000EF70F0E091A18F70970101C0220F8A952E
:1019B000EAF7892F822B81A382A1722E709487214E
:1019C00082A3D0EADA95F1F764E171E090E080E07B
:1019D000EB015990BE01452D42954F7050E0EA0150
:1019E00048A0AD90BC901197552D5F70E70102C0E3
:1019F000CC0FDD1F5A95E2F7AE01442109F059C022
:101A0000A701082E02C0440F551F0A94E2F74A2985
:101A10005B2911965C934E93019680319105C1F636
:101A200081A1782271A282A1282B22A38D919C9161
:101A30008816990641F0609268010E94E31F909316
:101A40006A0180936901DCE52D16D1E03D0609F0BD
:101A50009CCF809168018823B1F0809169019091B9
:101A60006A010E94EF1F069770F0ECE5F1E0D801E3
:101A70008D919D918D0181939193B1E00C351B0760
:101A8000B1F7109268010E94F80981E0DF91CF91CF
:101A90001F910F91FF90EF90DF90CF90BF90AF908C
:101AA0009F908F907F906F905F904F903F902F907E
:101AB000089550E040E0ABCFE82FF0E0EE0FFF1FBD
:101AC000E45AFE4F80819181089508959C01CB01D5
:101AD00065B1542F5095562365B1462B6FB7F894D6
:101AE000820F931F2817390711F46FBF0895F9016A
:101AF00071919F01E8E045B9000000C077FF55B93A
:101B0000770F000000C000C000C055B900C0EA95C2
:101B100091F7E8CFFC0194B1942B94B99B01220F6B
:101B2000331F620F731FCF010E94660D87EC90E098
:101B30000197F1F700C00000089540E80C948A0D69
:101B4000AF92BF92CF92DF92EF92FF920F931F93CB
:101B5000CF93DF937C01E901842F242F662309F4BE
:101B60003FC0C42ED12C8FEF90E0861B9109489F77
:101B70008001499F100D1124212F812F9927C81A08
:101B8000D90A9CE3A92EB12CC701B5010E94562C9D
:101B9000FB01BC01C69EC001C79E900DD69E900D54
:101BA0001124B5010E94562CE330F10509F443C01D
:101BB00080EFE816F10468F4E130F10591F1329715
:101BC000A1F18CE3E816F10440F180E020E040E070
:101BD00007C0E430F10599F1842F861B3597A9F7EA
:101BE000E42FF0E0E754F24F4491E22FF0E0E754A5
:101BF000F24F9491E82FF0E0E754F24FE4914983DB
:101C00009883EA83DF91CF911F910F91FF90EF901E
:101C1000DF90CF90BF90AF900895812F262F210F96
:101C2000DFCF812F242F461BDBCF862F810FE42FA0
:101C3000412F2E2FD5CFE42FE61B842FF9CF842FF1
:101C4000462F410FCDCF88E090E00C948C2CAB0157
:101C5000BC0188E090E00C94AA2CCF93DF9300D0D5
:101C600000D0CDB7DEB7E4E6F2E083E080831182F6
:101C70008FEF828383838091640290916502A091AB
:101C80006602B091670289839A83AB83BC83BC01EF
:101C9000CD010F900F900F900F90DF91CF910C948A
:101CA000270E80916402ECE6F2E080FF06C062E15C
:101CB00070E08CE692E00C949D0D118210821282ED
:101CC000339682E0E23AF807C1F7F1CFECE6F2E0B2
:101CD000818360834283339692E0E23AF907C1F749
:101CE0000C94510EEF92FF920F931F93CF93DF93BB
:101CF00000D00F92CDB7DEB7182FE92EF62E042FA5
:101D00008091640290916502A0916602B091670291
:101D10008093680290936902A0936A02B0936B0269
:101D20008091640280FF1FC09E012F5F3F4F812F73
:101D30009E2D0E94A00D8091680210FB87F9809370
:101D400068021695809169028078182BE0FA17F9DD
:101D500010936902F0926A0200936B024B816981D1
:101D60008A810E94660E0F900F900F90DF91CF91A5
:101D70001F910F91FF90EF9008950F931F93CF93B2
:101D8000DF9300D000D00F92CDB7DEB789839D835B
:101D9000062F142F8091640280FF54C0982F9E77E5
:101DA000923091F589819D810E94720E809164022A
:101DB000B981B0FB87F980936402B6958091650282
:101DC0008078B82B8D8180FBB7F9B09365020093C2
:101DD0006602109367028091640290916502A0915F
:101DE0006602B091670289839A83AB83BC83BC018E
:101DF000CD010F900F900F900F900F90DF91CF912A
:101E00001F910F910C94270E982F96959F732EE398
:101E1000290F2F73243018F410916702C7CF965CF6
:101E20009F73993018F6881F8827881F9091650244
:101E30009D83990F982B9983AD81A7FBAA27A0F9C1
:101E4000AD83B4CF0F900F900F900F900F90DF9154
:101E5000CF911F910F910895E4E6F2E02081221FB7
:101E60002227221F30916502432F440F842F822B9B
:101E700037FB992790F9089668E671E00E946A2C72
:101E8000438162810C94BD0E20916402221F22279F
:101E9000221F30916502432F440F842F822B37FB82
:101EA000992790F98830910540F4805A9E4F4091CF
:101EB0006702609166020C94BD0E089768E671E0B7
:101EC0000E946A2CF4CF60916602683F90F4685FCC
:101ED00080916402881F8827881F90916502292FAE
:101EE000220F97FB992790F940916702822B0C945F
:101EF000BD0E6FEFEDCF60916602683090F06850D4
:101F000080916402881F8827881F90916502292F7D
:101F1000220F97FB992790F940916702822B0C942E
:101F2000BD0E60E0EDCF40916702483F90F4485FFE
:101F300080916402881F8827881F90916502292F4D
:101F4000220F97FB992790F960916602822B0C94DF
:101F5000BD0E4FEFEDCF40916702483090F04850F2
:101F600080916402881F8827881F90916502292F1D
:101F7000220F97FB992790F960916602822B0C94AF
:101F8000BD0E40E0EDCFCF93DF9300D000D0CDB7B2
:101F9000DEB79091640290FF47C09178811132C002
:101FA0009260909364028091640290916502A09186
:101FB0006602B091670289839A83AB83BC83BC01BC
:101FC000CD010E94270E80916402982F9E77923057
:101FD00009F510928001881F8827881F909165025B
:101FE000292F220F97FB992790F940916702609162
:101FF0006602822B0F900F900F900F90DF91CF9180
:102000000C94BD0E893110F09063CBCF8F73880F85
:10201000982BC7CF982F9695925C9F739631D8F6E0
:1020200091E090938001D7CF0F900F900F900F9079
:10203000DF91CF91089580913702816080933702BC
:1020400081E0809381010E94441F811104C00E949D
:10205000231F0E942D0E0E94230E60936402709332
:10206000650280936602909367026E7761F40E9426
:102070002D0E0E94230E609364027093650280937C
:1020800066029093670281E08093800180916402F0
:1020900080FF04C086958F730C94C30F08958091C0
:1020A000640286958F738F5F893108F081E00C940C
:1020B000C30FCF93DF9300D000D0CDB7DEB79091A0
:1020C0006402892F8E7F90FF8160809364028091EB
:1020D000640290916502A0916602B09167028983C3
:1020E0009A83AB83BC83BC01CD010E94270E8091F3
:1020F000640280FF0AC086958F730F900F900F9037
:102100000F90DF91CF910C94C30F109280019FEF3D
:10211000A0E7B2E09150A040B040E1F700C000005D
:102120000F900F900F900F90DF91CF910C94510E64
:10213000CF93C82F80917E0190917F010E94EF1F65
:10214000EC2FF0E0EB54F34FE491E817190609F097
:1021500010F50E94E31F90937F0180937E01E09130
:102160007D01F0E0E754F34F449180916402881FB1
:102170008827881F90916502292F220F97FB9927A6
:1021800090F960916602822B0E94720E80917D010F
:102190008F5F80937D01CF910895CF93C82F809159
:1021A0007B0190917C010E94EF1FEC2FF0E0EE5438
:1021B000F34FE491E817190609F0E8F40E94E31FD1
:1021C00090937C0180937B0140916702609166024D
:1021D0008091790190917A010E94720E809179012B
:1021E00090917A01019668E671E00E94562C9093D6
:1021F0007A0180937901CF910895CF92DF92EF9287
:10220000FF921F93CF93DF93182F809177019091C6
:1022100078010E94EF1FE12FE695F0E0EE54F34FB6
:10222000E491E817190609F0C0F50E94E31F9093A6
:102230007801809377018CE6E82E82E0F82ED0E0DA
:10224000C0E098E6C92EDD24D39480917501909169
:1022500076018C0F9D1FB6010E94562C970140916C
:102260006702609166020E94A00D649683E0E80E0A
:10227000F11CC83681E0D80741F70E94510E8091C9
:1022800075019091760110FF10C00196BE010E9469
:10229000562C9093760180937501DF91CF911F9119
:1022A000FF90EF90DF90CF9008950197F2CFAF921B
:1022B000BF92CF92DF92EF92FF920F931F93CF9333
:1022C000DF93C82FDD24DA9480FD02C0DD24D3948F
:1022D00080917301909174010E94EF1FC695EC2FBD
:1022E000F0E0E155F34FE491E817190611F008F01A
:1022F00053C00E94E31F9093740180937301CCE656
:10230000D2E010E000E097E0A92EB12C19821882EB
:102310001A8287E0E82EF12CC12C809172018C0D7D
:1023200087FD8E5E082E000C990B80179107E9F44B
:10233000209167022E9DC0012F9D900D1124B501A3
:102340000E946A2C462F80916402881F8827881F6C
:1023500090916502592F550F97FB992790F99E018F
:1023600060916602852B0E94A00DCD0C81E0E81AD9
:10237000F10899F60F5F1F4F23960231110531F6D0
:102380000E94510E8091720191E0D91212C0811108
:102390000EC081E180937201DF91CF911F910F9167
:1023A000FF90EF90DF90CF90BF90AF900895815055
:1023B000F1CF90E00196B8010E946A2CEBCFBF925A
:1023C000CF92DF92EF92FF920F931F93CF93DF9301
:1023D000CDB7DEB7E6970FB6F894DEBF0FBECDBF20
:1023E000182F80917001909171010E94EF1FE12FD1
:1023F000F0E0E455F34FE491E817190611F008F006
:102400007AC00E94E31F90937101809370018E0146
:102410000F5F1F4FF12CE12C6801D80111961C921F
:1024200011971C9212961C92B12C909100018091F0
:102430006F01B99E800D112482310CF081E187FD7E
:1024400080E0082E000C990B8E159F05A1F4809159
:102450006402881F8827881F90916502592F550FA5
:1024600097FB992790F99801409167026091660265
:10247000852B0E94A00DB394B7E0BB12D6CFEFEF2F
:10248000EE1AFE0A0D5F1F4FF2E1EF16F10429F676
:102490002CE632E009E010E052E1E52EF12CC80113
:1024A000B7010E946A2CFC01EE0FFF1FE80FF91F15
:1024B000EC0DFD1D8181D90111968C9311978081BE
:1024C0008C93828112968C930F5F1F4F2D5F3F4F2D
:1024D0000B31110521F70E94510E9091000180915E
:1024E0006F019130E1F48A3FB4F489EF80936F017A
:1024F0008FEF80930001E6960FB6F894DEBF0FBE13
:10250000CDBFDF91CF911F910F91FF90EF90DF90A2
:10251000CF90BF900895815080936F01ECCF8931A7
:102520002CF088E180936F0181E0E3CF8F5FF4CFDF
:10253000CF93DF9380916D0190916E010E94EF1F08
:10254000883E934028F10E94E31F90936E01809390
:102550006D0180916B0190916C01019681709927BA
:1025600090936C0180936B01CCE6D2E09E01409188
:1025700067026091660290E080E00E94A00D2396C1
:1025800082E0C23AD80791F7DF91CF910C94510EB7
:10259000DF91CF91089580918001882371F180911E
:1025A000640286958F739EE3980F9F73943018F49E
:1025B00082500C9498109AE3980F9F73933018F4FC
:1025C00086500C94CD1097E3980F9F73963018F4B3
:1025D00089500C94FD1091E3980F9F73963018F476
:1025E0008F500C9457119BE2980F9F73933018F4FF
:1025F00085510C94DF110C949812089590938701E3
:10260000809386010895E0918601F09187013097CB
:1026100021F00190F081E02D099480E00895E0918F
:102620008601F0918701309721F00280F381E02D3F
:1026300009940895E0918601F0918701309721F087
:102640000480F581E02D0994089520918401309152
:1026500085012817390771F09093850180938401D3
:10266000E0918601F0918701309721F00680F78193
:10267000E02D09940895209182013091830128175B
:10268000390771F09093830180938201E091860174
:10269000F0918701309721F00084F185E02D0994B5
:1026A000089508950C9451130E94DA1F0E945C0C47
:1026B0000E94A4200C941B105F926F927F928F92C5
:1026C0009F92AF92BF92CF92DF92EF92FF920F93C1
:1026D0001F93CF93DF9300D000D00F92CDB7DEB71A
:1026E0000E94A70C99E8A92E91E0B92E10E000E015
:1026F00088248394912C502E802F0E945C0D7C01A5
:10270000F501C190D1905F01C816D90609F45DC0EA
:102710008091370281FD0E94650D90E080E0CE241B
:10272000DF243401082E02C0660C771C0A94E2F7FD
:10273000960126213721232B09F442C089835A822E
:10274000E620F72081E0EF2809F480E08B830E94E7
:10275000E31F8160782F9D838C8349815A816B812F
:102760008D810E941114000F111FF801E757FE4FD1
:102770008081918168267926718260820E9451232E
:102780000E940313909188018917B1F10E940313ED
:10279000809388010F900F900F900F900F90DF9112
:1027A000CF911F910F91FF90EF90DF90CF90BF904E
:1027B000AF909F908F907F906F905F900C94FC09EA
:1027C00001968031910509F0ACCF0F5F1F4F0630A5
:1027D000110509F090CF8FEF89838A831B820E94B5
:1027E000E31F8160782F9D838C8349815A816B819F
:1027F0008D810E941114C2CF0F900F900F900F90F7
:102800000F90DF91CF911F910F91FF90EF90DF908C
:10281000CF90BF90AF909F908F907F906F905F9080
:102820000895CF93DF93CDB7DEB72B970FB6F8940B
:10283000DEBF0FBECDBF4F83588769877A878B87EE
:102840001E8285E0FE013796DE01119601900D9201
:102850008A95E1F749815A816B817C818D819E81C6
:102860002B960FB6F894DEBF0FBECDBFDF91CF9190
:102870000C94881A882309F4D8C0823871F40E9415
:10288000031381FDD2C089E30E942A1E0E94F41E18
:1028900089E30E94671E0C94F41E833859F40E9449
:1028A000031380FDC2C083E50E942A1E0E94F41E0D
:1028B00083E5EFCF843859F40E94031382FDB5C03D
:1028C00087E40E942A1E0E94F41E87E4E2CF9CEF58
:1028D000980F913A18F40E942A1EDDCF90E2980FCB
:1028E000983050F4877091E001C0990F8A95EAF70B
:1028F000892F0E94AB1ECFCF9BE5980F933070F4C9
:10290000853A31F0863A39F083E890E00C9425134B
:1029100081E890E0FBCF82E890E0F8CF98E5980F4F
:10292000953108F082C0883A09F440C0893A09F428
:1029300040C08A3A09F440C08B3A09F440C08C3A4E
:1029400009F440C08B3B09F440C08C3B09F440C003
:102950008D3A09F440C0803B09F440C08E3A09F436
:1029600040C08F3A09F440C0813B09F440C0823B2B
:1029700009F440C0833B09F440C0843B09F440C0E3
:10298000853B09F440C0863B09F440C0873B09F40D
:1029900040C0883B09F440C0893B09F440C08A3BF1
:1029A00009F440C090E080E00C943B1382EE90E08C
:1029B000FBCF89EE90E0F8CF8AEE90E0F5CF85EB83
:1029C00090E0F2CF86EB90E0EFCF83EB90E0ECCF9E
:1029D00084EB90E0E9CF87EB90E0E6CF8CEC90E0E1
:1029E000E3CF8DEC90E0E0CF83E891E0DDCF8AE8A3
:1029F00091E0DACF82E991E0D7CF84E991E0D4CFBA
:102A000081E292E0D1CF83E292E0CECF84E292E005
:102A1000CBCF85E292E0C8CF86E292E0C5CF87E2D5
:102A200092E0C2CF8AE292E0BFCF0895882309F4F2
:102A30004BC0823871F40E94031381FF45C089E3C3
:102A40000E942A1E0E94F41E89E30E94671E0C94B5
:102A5000F41E833859F40E94031380FF35C083E5C8
:102A60000E942A1E0E94F41E83E5EFCF843859F499
:102A70000E94031382FF28C087E40E942A1E0E943E
:102A8000F41E87E4E2CF9CEF980F913AF0F290E2C7
:102A9000980F983050F4877091E001C0990F8A9593
:102AA000EAF7892F0E94B11ED2CF9BE5980F933091
:102AB00020F490E080E00C942513885A853120F4AE
:102AC00090E080E00C943B130895882321F00E944D
:102AD000AB1E0C94F41E0895882321F00E94B11EB1
:102AE0000C94F41E08958F929F92AF92BF92DF9242
:102AF000EF92FF920F931F93CF93DF9300D000D0FC
:102B00000F92CDB7DEB77C016D837983FC0105811F
:102B100002950F70128111110E94CA1E0E94231E7D
:102B2000D82E882371F01123A1F08D81805E88302A
:102B300080F082E00E940D1E0E94231E91E0D82E9C
:102B4000D926E981E295EF70F0E0E751F34D0C945E
:102B50007E2CD12CF6CF09810F70F981F07F11F016
:102B60000295007F1123B1F0002361F08D81805E1A
:102B7000883018F02D81211109C0802F0E94AB1ED2
:102B80000E94F41E8D810E943A1415C0802F0E946D
:102B9000BC1EF6CF8D810E941615002361F08D8139
:102BA000805E883018F03D81311129C0802F0E944D
:102BB000B11E0E94F41EDD2009F4D3C10E94001E44
:102BC00080FDCFC1F70112820E94FA1D0E94461CAF
:102BD000C7010E94C2170E94FA1D0F900F900F901C
:102BE0000F900F90DF91CF911F910F91FF90EF9079
:102BF000DF90BF90AF909F908F900C94681C802FB7
:102C00000E94C21ED6CF49814F70B42E5981507F89
:102C1000503219F0B29480EFB8228D81882369F088
:102C2000813029F1112369F1002359F0F7018581E1
:102C300080FFA8CF8F70858304C0112361F001113C
:102C400004C08B2D0E946515B6CF8B2D0130D1F7B6
:102C50000E94DE1EB0CF011106C00E94E11E8B2D26
:102C60000E946C15A8CF013009F4A5CFF6CF11232F
:102C700021F0063008F09FCFE4CF053008F09BCF5D
:102C8000EECF002361F38D810E94161594CF8981C8
:102C900086958695837069F0813009F08CCF8D819F
:102CA00099819370111102C090E080E00E943B1363
:102CB00082CF8D8199819370111102C090E080E0E4
:102CC0000E94251378CF8D81112329F00E945F2265
:102CD0000E94462370CF0E94C722FACF8981837059
:102CE00009F05FC0111167CF2D81229526952770BD
:102CF000220F220F8D818F7090E0B0E0A0E04C0198
:102D00005D01022E04C0880C991CAA1CBB1C0A94ED
:102D1000D2F7FD8160E070E0CB01F4FF0FC06FE0FF
:102D200070E080E090E004C0660F771F881F991F55
:102D30002A95D2F760957095809590952981269572
:102D4000269523702D832230B1F0233019F19B0199
:102D5000AC01282939294A295B2929833A834B83E5
:102D60005C833D8169817A818B819C813130B1F0B6
:102D70000E94D31B20CF9B01AC01282939294A2965
:102D80005B2929833A834B835C83CA01B9010E9482
:102D9000FD1B11CF0E94D31BC501B4010E94A91BCA
:102DA0000ACF8695112311F089818170882309F457
:102DB00002CF2D81229526952770220F220F8D811B
:102DC0008F7090E0B0E0A0E04C015D01022E04C0E5
:102DD000880C991CAA1CBB1C0A94D2F73D8160E0A8
:102DE00070E0CB0134FF0FC06FE070E080E090E056
:102DF00004C0660F771F881F991F2A95D2F7609528
:102E000070958095909549814695469543704D8380
:102E10004230B1F0433019F19B01AC012829392926
:102E20004A295B2929833A834B835C833D816981ED
:102E30007A818B819C813130B1F00E94D91CBBCE4C
:102E40009B01AC01282939294A295B2929833A8326
:102E50004B835C83CA01B9010E94031DACCE0E9462
:102E6000D91CC501B4010E94AF1CA5CE3D81323FE3
:102E700009F447C080F4303F79F1313FD9F1832F15
:102E8000805E8031D0F0112309F456C001117ACE52
:102E900089818F7133C04D81433FD1F1443F99F710
:102EA000112309F43FC089818F7189830E94461CD8
:102EB00063E089810E94041E7ECE5D815F705D8328
:102EC00089818F71112321F00E94461C8D81BACE19
:102ED0000E94681C8D81C4CE112341F0053008F09A
:102EE0006ACE89818F710E948D1C65CE063008F0F4
:102EF00062CEF7CF89818F71112339F00E94461C71
:102F00005ACE89818F711123C9F30E94681C53CE58
:102F1000112329F089818F710E94311C4CCE0E94AF
:102F2000271C49CE81E00E940D1E023008F443CEDA
:102F300082E00E940D1E3FCE0111A5CE89818F71C6
:102F4000E4CF49814F706D81C7010E947B080E94C8
:102F5000221B31CE49814F706D81C7010E94FE094D
:102F60002ACE0F900F900F900F900F90DF91CF917E
:102F70001F910F91FF90EF90DF90BF90AF909F90C7
:102F80008F9008950F931F93CF93DF93EC018B8164
:102F90009C81892B29F08881998189238F3F29F48D
:102FA000DF91CF911F910F910895CE010E94940857
:102FB0008823B1F3688179818A810E94D01D8C01B8
:102FC0000E942D1D0E949E1BB801CE01DF91CF9162
:102FD0001F910F910C9473150E94CA1E0E94DB1E54
:102FE0000E949D1E0E94F41E0E9437240E944623C8
:102FF00090E080E00E94251390E080E00C943B1369
:103000000E94B91E0C94EC170E94C41D282F892F12
:1030100082958F70903C80F48A30B0F4843020F434
:10302000823090F480E008958630E1F781E0203E20
:1030300088F0213FB9F70EC08C3011F08F3091F736
:1030400093FB882780F9089581E0203F39F018F438
:10305000203E40F70895243F29F7FCCF0895CF93F1
:10306000DF9300D000D00F92CDB7DEB70F900F9056
:103070000F900F900F90DF91CF910895CF93DF9332
:1030800000D000D000D0CDB7DEB726960FB6F894AA
:10309000DEBF0FBECDBFDF91CF9108951F93CF93B9
:1030A000DF93E091960116E0809197018E1304C0A2
:1030B000DF91CF911F910895CE2FD0E01E9FF00198
:1030C0001124E856FE4F40815181628173818481D1
:1030D00095810E943E18FE013196E770E5CF409140
:1030E000C8015091C9016091CA017091CB018091D2
:1030F000CC019091CD010C943E181F93CF93DF9398
:103100008091CD01807FC1F48091CA018823A1F014
:1031100080919601C09197016091C8017091C90199
:103120004091CB015091CC01D62FD723DA01A09545
:10313000B09516E0C81304C0DF91CF911F91089598
:1031400090E04115510511F0DF3F31F40196877091
:10315000F1CF2A0F3B1F17C0189FF001199FF00DE8
:103160001124E856FE4F21812713F0CF208126132A
:10317000EDCF22812111EACF238134812417350735
:1031800040F3241B350B283C310500F72091CD017D
:103190002F7020612093CD0126E0289FF001299F08
:1031A000F00D1124E356FE4F80818F708061808383
:1031B00088EC91E00E94C217DF91CF911F910C948F
:1031C0004E189F92AF92BF92CF92DF92EF92FF92F2
:1031D0000F931F93CF93DF93CDB7DEB72B970FB627
:1031E000F894DEBF0FBECDBF8C0185E0F801DE0193
:1031F000179601900D928A95E1F7D8014C9111969E
:103200005C9111971296EC9012978091CB0190915E
:10321000CC01009709F46BC12091C8013091C9011C
:10322000632F62236F3F09F462C11396CD90DC9047
:103230009090CA01992009F4F8C0C816D90608F47C
:103240003FC0F601E81BF90BCF01FF24F394883C43
:10325000910508F0F12C88ECA82E81E0B82E809121
:10326000CD01982F907FFF2009F4B7C0911180C045
:10327000FE2C35132AC0241328C0E11026C08F70FD
:1032800080618093CD010E946F18C5010E94C21712
:103290008091CD01D80115968C938F2D2B960FB66A
:1032A000F894DEBF0FBECDBFDF91CF911F910F917C
:1032B000FF90EF90DF90CF90BF90AF909F900895D8
:1032C000809590958C0D9D1DC0CFCD2829F0842F21
:1032D00085238F3F09F019C180E0B82FB170DB2E34
:1032E000E09196012091970136E080FD1CC0EE2010
:1032F000A1F28091CD0181608093CD01F12CCDCFE1
:103300008E2F90E03E9FF0011124E856FE4F618120
:10331000651306C06081641303C062816E11E7CF3C
:10332000FC013196E770E213EBCF4F8358878F8112
:1033300098850E94C41D292F22952F70903260F02D
:10334000225F2F70223078F49F7051F0F801958140
:10335000907F31F4D12C0AC09F7011F08823D1F3F3
:10336000805E8830B8F3C8010E94C217FD2C95CF4B
:10337000351306C0241304C0D801EE2009F47BC025
:103380004F8358878F8198850E940418882309F4F9
:10339000B8C0EE2009F4B5C08091CD01803270F044
:1033A0002091C8013091C9013A8329831B82DD82B3
:1033B000CC828E83CE0101960E94C21786E0F8016E
:1033C000A8ECB1E001900D928A95E1F70E947D187A
:1033D0000E946F18FF24F39460CF911113C07C2DCD
:1033E000DB86CA866E2D8B850E942F1888EC91E0B3
:1033F0000E94C21786E0F50111928A95E9F70E94B2
:103400006F184BCF3513BCCF2413BACFE110B8CF10
:10341000D80115968C93C8010E94C21786E0F50169
:1034200011928A95E9F7F92C38CFC816D90688F198
:10343000B601681B790BCB01F12C883C910508F093
:1034400047C0FE2CEE2009F45CC0351330C02413B5
:103450002EC08091CD0180FD21C0982F907FF1F08A
:10346000D80115968C931597903F39F0982F907F3F
:10347000905F8F70892B15968C93C8010E94C2179C
:1034800086E0F801A8ECB1E001900D928A95E1F791
:10349000B6CF809590958C0D9D1DCECF86E0F8011E
:1034A000A8ECB1E001900D928A95E1F7F6CE4F833A
:1034B00058878F8198850E94041881117FCF809151
:1034C000CD0181608093CD01C8010E94C217E5CE75
:1034D0007C2DDB86CA866E2D8B850E942F1886E098
:1034E000E8ECF1E0DF011D928A95E9F788CFEE2044
:1034F00041F04F8358878F8198850E94041881116D
:103500005DCFC8010E94C21765CF81E08E25E5CE50
:103510001F93CF93DF93CDB7DEB72C970FB6F894F8
:10352000DEBF0FBECDBF4F83588769877A878B87F1
:103530009C87CE0107960E94E118882369F08A854E
:103540009B85892B39F04F815885842F85238F3FA8
:1035500009F071C016E05FC086E0FE013796DE011B
:10356000119601900D928A95E1F78A859B85892BAA
:1035700089F388859F8189238F3F61F3209197018B
:1035800030E0C9010196877099274091960148174C
:10359000190671F40E94001810929701109296017A
:1035A00086E0E8ECF1E0DF011D928A95E9F7D2CFE1
:1035B00096E0929FD001939FB00D1124A856BE4F64
:1035C000FE01319601900D929A95E1F78093970153
:1035D0000E944E18BFCF819FC001112488569E4F74
:1035E0000E94E1188823E9F0E09196011E9FF00106
:1035F0001124E856FE4F408151816281738184819C
:1036000095810E943E188091960190E00196877006
:103610009927809396018091960190919701891343
:10362000DACF2C960FB6F894DEBF0FBECDBFDF9178
:10363000CF911F91089569857A858B859C850E941D
:103640003E1888CFEF92FF920F931F93CF93DF9393
:103650008C01892B89F0F12CEE24E394E80121966A
:10366000F8018491843709F457C0A0F4823009F43A
:103670003EC048F48130D1F0DF91CF911F910F917E
:10368000FF90EF9008959CEF980F9037A8F70E9455
:103690003A140AC0853709F44CC09CE7980F90375C
:1036A00058F78F770E9416158E0116C00E5F1F4FB8
:1036B000FE01849190E2980F983060F48770FE2D9F
:1036C00001C0FF0F8A95EAF78F2F0E94CD1E0E943E
:1036D000F41E02C00E943A148F2D815008F4BECF10
:1036E000EFE9FFE03197F1F700C00000F6CF0E5F81
:1036F0001F4FFE01849190E2980F983050F487702C
:10370000FE2D01C0FF0F8A95EAF78F2F0E94D31E6E
:10371000DECF0E941615E0CF0E5F1F4FFE01C49151
:10372000C150D0F28FE99FE00197F1F700C000008F
:10373000F7CF0E5F1F4FFE01F490CECF0895609338
:103740000E0270930F0280931002909311020C945A
:10375000EC17CF93DF9300D000D0CDB7DEB76983ED
:103760007A838B839C8380910E0290910F02A091AB
:103770001002B091110229813A814B815C81822B28
:10378000932BA42BB52B80930E0290930F02A09342
:103790001002B09311020F900F900F900F90DF91D5
:1037A000CF910C94EC17CF93DF9300D000D0CDB71E
:1037B000DEB769837A838B839C8380910E0290911C
:1037C0000F02A0911002B091110229813A814B8120
:1037D0005C8182239323A423B52380930E029093CC
:1037E0000F02A0931002B09311020F900F900F9050
:1037F0000F90DF91CF910C94EC17CF93DF9300D013
:1038000000D0CDB7DEB769837A838B839C838091A8
:103810000E0290910F02A0911002B0911102298125
:103820003A814B815C8182279327A427B527809317
:103830000E0290930F02A0931002B09311020F900A
:103840000F900F900F90DF91CF910C94EC17109286
:103850000A0210920B0210920C0210920D020C94AC
:10386000EC1741E050E060E070E004C0440F551FE9
:10387000661F771F8A95D2F740930A0250930B0276
:1038800060930C0270930D020C94EC17282F81E0CA
:1038900090E0A0E0B0E004C0880F991FAA1FBB1FF2
:1038A0002A95D2F740910A0250910B0260910C02C6
:1038B00070910D02842B952BA62BB72B80930A02B7
:1038C00090930B02A0930C02B0930D020C94EC1792
:1038D00041E050E060E070E004C0440F551F661FF7
:1038E000771F8A95D2F74095509560957095809195
:1038F0000A0290910B02A0910C02B0910D02842358
:103900009523A623B72380930A0290930B02A093DA
:103910000C02B0930D020C94EC17282F81E090E07C
:10392000A0E0B0E004C0880F991FAA1FBB1F2A9512
:10393000D2F740910A0250910B0260910C027091F3
:103940000D0284279527A627B72780930A02909314
:103950000B02A0930C02B0930D020C94EC17CF93C2
:10396000DF9300D000D0CDB7DEB769837A838B8335
:103970009C8380910A0290910B02A0910C02B0915D
:103980000D0229813A814B815C81822B932BA42BE0
:10399000B52B80930A0290930B02A0930C02B09374
:1039A0000D020F900F900F900F90DF91CF910C941C
:1039B000EC17CF93DF9300D000D0CDB7DEB769838B
:1039C0007A838B839C8380910A0290910B02A09151
:1039D0000C02B0910D0229813A814B815C818223D6
:1039E0009323A423B52380930A0290930B02A09300
:1039F0000C02B0930D020F900F900F900F90DF917B
:103A0000CF910C94EC17CF93DF9300D000D0CDB7BB
:103A1000DEB769837A838B839C8380910A029091BD
:103A20000B02A0910C02B0910D0229813A814B81C9
:103A30005C8182279327A427B52780930A0290935D
:103A40000B02A0930C02B0930D020F900F900F90F9
:103A50000F90DF91CF910C94EC1708959295907F81
:103A6000E92FE80F877041E001C0440F8A95EAF71B
:103A7000E695E695E69585E0E89FF0011124E2538E
:103A8000FE4F30E020E070E05191DF011197CB0153
:103A9000022E02C0969587950A94E2F7817081956F
:103AA0008527842385278C932F5F3F4F2530310551
:103AB00059F70895E92FE295E07FE80F982F977066
:103AC000E695E695E69585E0E89FF0011124E2533E
:103AD000FE4F50E040E080E0219130E0092E02C02E
:103AE000369527950A94E2F721703327042E01C0FA
:103AF000220F0A94EAF7822B4F5F5F4F4530510542
:103B000059F70895BF92CF92DF92EF92FF920F93F1
:103B10001F93CF93DF938C01C0900A02D0900B02C9
:103B2000E0900C02F0900D0280910E0290910F0235
:103B3000A0911002B0911102C82AD92AEA2AFB2AC0
:103B4000CFE1D0E0BC2ED701C6010C2E04C0B69543
:103B5000A795979587950A94D2F780FD0EC0219777
:103B600088F7B12C8B2DDF91CF911F910F91FF9092
:103B7000EF90DF90CF90BF900895B8018C2F0E94F6
:103B80001C0A019761F3EECFCF93DF93D82FC92F93
:103B90000E94821D6D2F7C2FDF91CF910C941C0A07
:103BA0001F93CF93DF93162FD72F909195019923D1
:103BB00039F0862F972FDF91CF911F910C94C41D60
:103BC000882391F0862F972F0E94821DC82F682F7F
:103BD000812F9D2F0E942E1D612F7D2F8C2FDF9115
:103BE000CF911F910C941C0A862F972F0E945A1D6B
:103BF000C82FF2CF809112028595859585950895FD
:103C0000809112028770089598E0899F9001112495
:103C1000622B609312020C94461C909112028095C4
:103C2000892380931202282F277061F4282F082EF1
:103C3000000C330B9217130629F085958595859511
:103C40000C94681C089590911202977081E009F419
:103C500080E00895909113019923E1F09091A602DC
:103C600097FF18C0E82FE695E695E695EF3139F114
:103C70002091010130910201E20FF32FF11D8770B5
:103C800021E030E001C0220F8A95EAF78181822B82
:103C9000818308952091010130910201F90132964A
:103CA0009FEF40E05191851751F09F3F19F451115A
:103CB00001C0942F4F5F4E31A9F79F3F09F408953B
:103CC000290F311D97FD3A95F9018283089590914E
:103CD0001301992301F19091A60297FF1CC0E82FD0
:103CE000E695E695E695EF3139F1209101013091A5
:103CF0000201E20FF32FF11D877021E030E0A901EE
:103D000002C0440F551F8A95E2F7CA018095918140
:103D10008923818308952091010130910201F901E5
:103D20003296205E3F4F9191891303C0DF011197B6
:103D30001C92E217F307B9F7089581E090E0E09153
:103D40000101F0910201E80FF91F10820196803203
:103D50009105A9F7089590913602982B9093360219
:103D60000895982F9095809136028923809336028A
:103D7000089510923602089590913502982B9093F1
:103D800035020895982F909580913502892380936C
:103D90003502089510923502089590913402982BBF
:103DA000909334020895982F90958091340289233E
:103DB0008093340208951092340208958093130280
:103DC000089510921302089520910101309102018B
:103DD000F9013196205E3F4F80E0919191118F5F04
:103DE000E217F307D1F70895E0910101F091020184
:103DF000809136028083E0910101F091020180817F
:103E000090913502892B8083E0910101F0910201AC
:103E1000808190913402892B8083909113029923A1
:103E200061F0E0910101F09102018081892B808392
:103E30000E94E41E81111092130280910101909161
:103E400002010C940F136DEE7EEF90E080E00E9473
:103E5000B62C60E082E090E00E94982C60E083E065
:103E600090E00E94982C60E084E090E00E94982C02
:103E700060E085E090E00E94982C40E050E0BA01BC
:103E800088E090E00C94AA2C90E080E00E94922CB4
:103E90009C0181E02D3E3E4F09F080E0089582E0D4
:103EA00090E00C94842C682F82E090E00C94982C85
:103EB00083E090E00C94842C682F83E090E00C94D5
:103EC000982C84E090E00C94842C682F84E090E09F
:103ED0000C94982C8091AC02843039F11092380205
:103EE00088E190E020E40FB6F894A89580936000F4
:103EF0000FBE2093600080E00E94FC0983B7817FA1
:103F0000846083BF83B7816083BF7894889583B7CB
:103F10008E7F83BF0FB6F894A8958091600088616A
:103F200080936000109260000FBE08950895089578
:103F3000CF930E94961F0E94A70C0E94971FC0E07B
:103F40008C2F0E945C0D892B31F4CF5FC630C1F7F6
:103F500080E0CF91089581E0FCCF0E9400180E947C
:103F600003130C94FC091F921FB61F9211248F9308
:103F70009F93AF93BF9380913802811113C08091BA
:103F8000A2029091A302A091A402B091A502419631
:103F9000A11DB11D8093A2029093A302A093A4023D
:103FA000B093A502BF91AF919F918F911F901FBEBB
:103FB0001F90189582E084BD93E095BD9AEF97BD60
:103FC00080936E0008952FB7F8948091A20290918B
:103FD000A302A091A402B091A5022FBF0895CF9291
:103FE000DF92EF92FF929C014FB7F8948091A2026A
:103FF0009091A302A091A402B091A5024FBF6C01C1
:104000007D01EE24FF24A90170E060E0C416D5060E
:10401000E606F70638F0821B930BFF90EF90DF90D7
:10402000CF9008950197F7CF1F921FB61F921124CA
:104030008F939F93AF93BF938091A2029091A3021D
:10404000A091A402B091A5020196A11DB11D80937B
:10405000A2029093A302A093A402B093A502BF91E1
:10406000AF919F918F911F901FBE1F9018950E9436
:104070002D28F8942FEF87EA91E621508040904058
:10408000E1F700C0000087E090EBDC018093B5020F
:104090009093B602A093B702B093B80288E19CE077
:1040A0000FB6F894A895809360000FBE90936000BF
:1040B000FFCFAF92BF92CF92DF92EF92FF920F931A
:1040C0001F93CF93C0E0AA24A394B12CE82EF12C27
:1040D0008C2F0E945C0D6C0110E000E0C501002EE9
:1040E00002C0880F991F0A94E2F78C219D21892B29
:1040F00099F0602F7C2F80E00E94FF09E816F906F6
:1041000059F481E0CF911F910F91FF90EF90DF90D4
:10411000CF90BF90AF9008950F5F1F4F00311105F2
:10412000E9F6CF5FC630A1F680E0ECCFCF93C82F81
:104130008CE20E945920882321F08C2FCF910C947F
:10414000592080E0CF910895CF93DF9300D000D025
:10415000CDB7DEB70E94441F811102C00E94231F09
:1041600095E6998308C00E94A70C8FE39CE901970C
:10417000F1F700C00000A981A150A983A111F3CFDC
:1041800089E20E949620811110C18AE20E94962045
:1041900081110E94231F85E00E94962081110E94B8
:1041A00037200E944F1F8093370287E00E9496209D
:1041B000882371F08BE10E949620882309F4D1C0F6
:1041C00090913702892F8D7F91FF82608093370213
:1041D000809137020E94531F0E94611F90E09093CC
:1041E000A7028093A60280EE0E949620882341F0C9
:1041F0009091A602892F8E7F90FF81608093A60206
:1042000089E30E949620882341F09091A602892F8D
:104210008D7F91FF82608093A60282EE0E9496209D
:10422000882341F09091A602892F8B7F92FF8460B2
:104230008093A60286EE0E949620882341F09091FA
:10424000A602892F877F93FF88608093A60283EE62
:104250000E949620882341F09091A602892F8F7E9C
:1042600094FF80618093A60285E30E9496208823B4
:1042700041F09091A602892F8F7D95FF80628093F7
:10428000A60281E30E949620882341F09091A60225
:10429000892F8F7B96FF80648093A60281E10E9424
:1042A0009620882341F09091A602892F97FB87F9E9
:1042B00080588093A6028091A6020E94651F87E223
:1042C0000E94962089838EE10E949620882319F00F
:1042D000B981B260B9838FE10E949620882319F0DA
:1042E00029812460298380E20E949620882319F086
:1042F00039813860398381E20E949620882319F041
:1043000049814061498382E20E949620882319F006
:1043100059815062598383E20E949620882319F0C4
:1043200089818064898384E20E9496208823B1F188
:1043300099819068998389810E945C1F3981232F1C
:1043400030E050E040E029833A834B835C83CA012C
:10435000B9010F900F900F900F90DF91CF910C94B7
:104360009F1B8EE00E949620882339F0909137029F
:10437000892F8B7F92FF846029CF80E10E94962055
:1043800090913702882329F0892F877F93FF8860D7
:104390001DCF892F8E7F90FF816018CFA981A11139
:1043A000CACF0E94581F282FCBCF0F900F900F908D
:1043B0000F90DF91CF91089580913B0280FF12C052
:1043C0006091060185E0689FB0011124759567959D
:1043D0007595679560387105A8F561157105A1F1AE
:1043E000862F089581FF09C06091060185E0689FCE
:1043F000B001112475956795EDCF6091060182FD9E
:104400000AC080913C028823D1F09091050160910F
:104410000601891728F085E0689FB0011124DACFE2
:10442000869FB001112485E0869F9001879F300D03
:104430001124692F70E0C9010E946A2CCBCF65E07E
:1044400070E0CECF8FE7089581E0089580913B0220
:1044500080FF0CC06091040170E0759567957595BB
:1044600067956115710549F1862F089581FF06C092
:104470006091040170E075956795F3CF6091040138
:1044800082FD0BC090913C029923A1F06091030141
:1044900080910401961738F0682F70E0603871053C
:1044A00000F38FE70895899FC001112470E00E94F6
:1044B0006A2CF4CF61E070E0D7CF81E00895803FAF
:1044C00031F40E94DC21819580933F020895813F61
:1044D00019F40E94DC21F8CF823F31F40E94DC21E4
:1044E000819580933E020895833F19F40E94DC2158
:1044F000F8CF893F29F40E94262280934002089534
:104500008A3F21F40E9426228195F7CF8B3F31F418
:104510000E94262281958093410208958C3F19F4D0
:104520000E942622F8CF843F31F480913D028160C1
:1045300080933D020895853F21F480913D02826081
:10454000F7CF863F21F480913D028460F1CF873F11
:1045500021F480913D028860EBCF883F21F4809167
:104560003D028061E5CF8D3F31F480913B02816057
:1045700080933B0208958E3F21F480913B0282603C
:10458000F7CF8F3FB9F780913B028460F1CF9091D4
:104590003E02803F41F480913F0287FD10923F022E
:1045A000992371F00895813F29F480913F021816F4
:1045B000ACF3F6CF823F81F497FFF2CF10923E0228
:1045C00080913F0290914002892B90914102892B6A
:1045D00049F710923C020895833F19F4191674F3B9
:1045E000DFCF893F39F4809140021816CCF6109243
:1045F0004002D6CF8A3F29F48091400287FFD0CF76
:10460000F6CF8B3F39F48091410287FFC9CF1092DA
:104610004102C6CF8C3F29F4809141021816BCF3A9
:10462000BFCF843F31F480913D028E7F80933D0265
:10463000B7CF853F21F480913D028D7FF7CF863F34
:1046400021F480913D028B7FF1CF873F21F480914F
:104650003D02877FEBCF883F21F480913D028F7E22
:10466000E5CF8D3F31F480913B028E7F80933B02FA
:1046700097CF8E3F21F480913B028D7FF7CF8F3F04
:1046800009F08ECF80913B028B7FF0CF8DE392E0DB
:104690000E941A130E94E31F90933A0280933902FA
:1046A00008951F93CF93DF9300D000D000D0CDB7F3
:1046B000DEB78091390290913A020E94EF1FAC015F
:1046C00080913C022091070130E0811106C02091C9
:1046D00008019AE0299F900111244217530788F09E
:1046E00020913E02A0913F02A98310914002B09117
:1046F0004102BE8321110FC09A2F912B9B2B09F0F1
:10470000B2C026960FB6F894DEBF0FBECDBFDF91C4
:10471000CF911F9108958F3F19F08F5F80933C02D6
:10472000121624F40E94DC2180933E0280913E0206
:1047300087FF05C00E94DC21819580933E0229817C
:10474000121624F40E94DC2180933F0280913F02E4
:1047500087FF05C00E94DC21819580933F028091F4
:104760003E02882309F455C030913F023D83332334
:1047700009F44FC0282F880F330B440B550B2983A6
:104780003A834B835C83CA01B9010E945D2B23E30A
:1047900033E343E35FE369837A838B839C8369819B
:1047A0007A818B819C810E94C12B69837A838B8360
:1047B0009C8369817A818B819C810E94252B6093E7
:1047C0003E028D81082E000C990BAA0BBB0B89832E
:1047D0009A83AB83BC83BC01CD010E945D2B23E394
:1047E00033E343E35FE369837A838B839C8369814B
:1047F0007A818B819C810E94C12B69837A838B8310
:104800009C8369817A818B819C810E94252B609396
:104810003F02111624F40E942622809340028091C8
:10482000400287FF05C00E942622819580934002A6
:104830009E81191624F40E942622809341028091C1
:10484000410287FF05C00E94262281958093410284
:1048500026960FB6F894DEBF0FBECDBFDF91CF9185
:104860001F910C9446238F3F09F057CF68CF85E006
:10487000EDE3F2E0DF011D928A95E9F710923C0228
:1048800010923B020895809162020895CF93DF93C6
:1048900000D00F92CDB7DEB72091AC02243019F5CD
:1048A00023E029838A839B832093E9008FEF9091F3
:1048B000E800815095FD06C095ED9A95F1F700004E
:1048C0008111F5CF8091E80085FF0DC050E040E0F8
:1048D00063E070E0CE0101960E94A5268091E80079
:1048E0008E778093E8000F900F900F90DF91CF911B
:1048F0000895CF93DF9300D00F92CDB7DEB79C0120
:104900008091AC02843031F582E0898320583109EE
:104910003B832A8383E08093E9008FEF9091E80046
:10492000815095FD06C095ED9A95F1F70000811133
:10493000F5CF8091E80085FF0DC050E040E063E0D6
:1049400070E0CE0101960E94A5268091E8008E7746
:104950008093E8000F900F900F90DF91CF91089512
:104960002091AC022430F1F422E02093E9002FEFF3
:104970003091E800215035FD06C035ED3A95F1F74C
:1049800000002111F5CF2091E80025FF0BC050E079
:1049900040E065E070E00E94A5268091E8008E77F7
:1049A0008093E8000895CF93DF93D82FC92F80918B
:1049B000AC028430F1F4909113019923E9F09091C5
:1049C000A60297FF19C08093E9008FEF9091E8004D
:1049D000815095FD06C095E19A95F1F7000081118F
:1049E000F5CF8091E80050E040E060E270E085FDA6
:1049F0001AC0DF91CF91089581E08093E9008FEF95
:104A00009091E800815095FD06C095ED9A95F1F7DB
:104A100000008111F5CF8091E80085FFEACF50E0DA
:104A200040E068E070E08D2F9C2F0E94A5268091C9
:104A3000E8008E778093E80080E2ED2FFC2FA2E45F
:104A4000B2E001900D928A95E1F7D3CF8091AB024D
:104A5000811109C00E942D280E948A288091E200BD
:104A600084608093E20008951092AB020895089547
:104A700008950C94AD1F42E061EC81E00E94A927EB
:104A800042E061EC82E00E94A92742E061EC83E011
:104A90000E94A92742E261EC84E00C94A92780914E
:104AA000AE02893089F148F4823009F494C0833031
:104AB00009F44FC0813041F008958A3009F47BC079
:104AC0008B3009F461C008958091AD02813A09F0FC
:104AD0003FC08091E800877F8093E8008091B10219
:104AE0009091B202892B61F460E282E492E070E07E
:104AF0000E94F4268091E8008B778093E800089567
:104B000060E090E080E0F3CF8091AD02813201F56A
:104B10008091B1029091B202009711F00397C1F415
:104B20008091E800877F8093E8008091E80082FF11
:104B30000BC08091F100809362028091E8008B7736
:104B40008093E8000C94DD278091AC028111EDCFB9
:104B500008958091AD02813AD9F78091B102909188
:104B6000B202892BA9F78091E800877F8093E80043
:104B70008091E80080FFFCCF809113018093F100C9
:104B80008091E8008E77DCCF8091AD02813201F711
:104B90008091B1029091B202892BD1F68091E80008
:104BA000877F8093E8000E94DD278091AF02809389
:104BB00013010C9400188091AD02813249F6809166
:104BC000E800877F8093E8000E94DD278091B00293
:104BD0008093630208958091AD02813A09F0B8CFC5
:104BE0008091E800877F8093E8008091E80080FF53
:104BF000FCCF80916302C2CF84B7877F84BF0FB69A
:104C0000F894A8958091600088618093600010926C
:104C100060000FBE80E880936100109261000E94E6
:104C200052130E942D280E948A288091E2008460FD
:104C30008093E20078940E940A2B0E94541389E02A
:104C400091E00E94FE128091AC02853029F00E9412
:104C50005C130E94CB12F7CF0E946A1F8091AA02B8
:104C6000882389F30E94981F882369F30E948F2666
:104C7000EACF9C01DA01892F992783309105C1F091
:104C800068F48130910509F445C0029761F48DE61E
:104C900090E029EE3EE02D933C93089581329105FA
:104CA000E1F0829739F190E080E030E020E0F3CF4E
:104CB000C9019927213059F08230910559F0E5EE6C
:104CC000FEE0892B81F7849190E09F01E4CFEDEC29
:104CD000FEE0F9CFE9EBFEE0F6CF643020F7E62FF7
:104CE000F0E0EE0FFF1FEA5CFE4F2081318189E08A
:104CF00090E0D1CF6430B8F670E0FB01EE0FFF1FFB
:104D0000E25DFE4F20813181665D7E4FFB01808137
:104D100090E0C1CF82E190E026E53FE0BCCF80E1AA
:104D200089BD82E189BD09B400FEFDCF8091D80024
:104D30008F7D8093D8008091E00082608093E000B6
:104D40008091E00081FDFCCF0895AF92BF92CF9299
:104D5000DF92FF920F931F93CF93DF936C01EB01D0
:104D60008A010E94FC27F82E811123C0011511052C
:104D700039F0F80180819181C81BD90BC80ED91E6A
:104D8000B12CA12C2097A9F08091E80085FD22C0CC
:104D90008091E8008E778093E80001151105A1F05D
:104DA000F80180819181A80EB91EB182A08285E0B0
:104DB000F82E8F2DDF91CF911F910F91FF90DF90F3
:104DC000CF90BF90AF9008950E94FC278823D1F226
:104DD000F82EEFCFF60181916F018093F1002197BA
:104DE000FFEFAF1ABF0ACECFFC01CB012091B30277
:104DF0003091B4022617370790F0009729F42091DC
:104E0000E8002E772093E80040E0009751F441112C
:104E100008C08091E80082FF31C080E00895C90198
:104E2000F3CF2091AC022223A9F12530A9F12091E2
:104E3000E80023FD2DC02091E80022FDEACF20915B
:104E4000E80020FFE2CF3091F3002091F2000097BC
:104E500019F02830310558F041E02830310509F0CB
:104E600040E02091E8002E772093E800CECF4191DA
:104E70004093F10001972F5F3F4FE9CF8091AC0243
:104E8000882341F0853041F08091E80083FFC1CF55
:104E900081E0089582E0089583E00895FC01CB014C
:104EA0002091B3023091B4022617370790F0009793
:104EB00029F42091E8002E772093E80040E0009745
:104EC00051F4411108C08091E80082FF32C080E0B7
:104ED0000895C901F3CF2091AC022223B1F125300E
:104EE000B1F12091E80023FD2EC02091E80022FDC1
:104EF000EACF2091E80020FFE2CF3091F30020912B
:104F0000F200009719F02830310558F041E02830C0
:104F1000310509F040E02091E8002E772093E80069
:104F2000CECF44914093F100319601972F5F3F4FD0
:104F3000E8CF8091AC02882341F0853041F0809128
:104F4000E80083FFC0CF81E0089582E0089583E008
:104F50000895982F973028F08F708093E90081E0B2
:104F600008959093E900242F762F50E0981731F0A0
:104F70007091EC002091ED005091F00021FD02C0F5
:104F80009F5FE8CF3091EB003E7F3093EB00309194
:104F9000ED003D7F3093ED003091EB0031603093B8
:104FA000EB007093EC002093ED005093F000209103
:104FB000EE0027FDE5CF80E008958091AD0287FFE8
:104FC00013C08091E80082FF06C08091E8008B77D3
:104FD0008093E80004C08091AC028111F2CF089563
:104FE0008091AC028823D9F38091E80080FFF8CF4C
:104FF0008091E8008E77ECCF2091E4003091E500BD
:1050000095E6A9012091EC00822F817020FF06C057
:105010008091E80080FF06C080E008952091E800BC
:1050200022FD1AC08091AC02882389F0853089F076
:105030008091EB0085FD0FC02091E4003091E500E8
:1050400042175307F9F29150E1F684E0089582E0A7
:10505000089583E0089581E008950E949B280E94AE
:10506000A328E0EEF0E0808181608083E8EDF0E04D
:1050700080818F77808319BCA7EDB0E08C918E7F03
:105080008C9380818F7E80831092AB0208950F9362
:105090001F93CF93DF930E949B280E94A328C8ED03
:1050A000D0E088818F778883888180688883888131
:1050B0008F7D888319BC1092AC021092A8021092C6
:1050C000AA021092A90200EE10E0F80180818B7F05
:1050D000808388818160888342E060E080E00E9474
:1050E000A927E1EEF0E080818E7F8083E2EEF0E0A0
:1050F000808181608083808188608083F8018081E5
:105100008E7F8083888180618883DF91CF911F911A
:105110000F910895E8EDF0E080818F7E8083E7EDC8
:10512000F0E080818160808384E082BF81E08093B1
:10513000AB020C944728E8EDF0E080818E7F8083FD
:105140001092E20008951092DA001092E1000895A2
:105150001F920F920FB60F9211242F933F934F93EC
:105160005F936F937F938F939F93AF93BF93EF93CF
:10517000FF938091E10082FF0BC08091E20082FFEB
:1051800007C08091E1008B7F8093E1000E94092B92
:105190008091DA0080FF19C08091D80080FF15C08F
:1051A0008091DA008E7F8093DA008091D90080FFB1
:1051B00094C080E189BD82E189BD09B400FEFDCFC4
:1051C00081E08093AC020E9426258091E10080FF5F
:1051D00019C08091E20080FF15C08091E2008E7FAF
:1051E0008093E2008091E20080618093E2008091F0
:1051F000D80080628093D80019BC85E08093AC020F
:105200000E9438258091E10084FF29C08091E2004E
:1052100084FF25C080E189BD82E189BD09B400FE1B
:10522000FDCF8091D8008F7D8093D8008091E100E0
:105230008F7E8093E1008091E2008F7E8093E20078
:105240008091E20081608093E2008091A80288232F
:1052500009F449C084E08093AC020E943925809112
:10526000E10083FF29C08091E20083FF25C0809187
:10527000E100877F8093E10082E08093AC0210928E
:10528000A8028091E1008E7F8093E1008091E2008E
:105290008E7F8093E2008091E20080618093E20043
:1052A00042E060E080E00E94A9278091F0008860E1
:1052B0008093F0000E943725FF91EF91BF91AF914D
:1052C0009F918F917F916F915F914F913F912F911E
:1052D0000F900FBE0F901F90189519BC1092AC0242
:1052E0000E94342572CF8091E30087FD02C081E0E7
:1052F000B2CF83E0B0CF1F920F920FB60F9211245E
:105300002F933F934F935F936F937F938F939F93CD
:10531000AF93BF93CF93DF93EF93FF93D091E900C7
:10532000DF708091EC00C82FC17080FDC0E8109242
:10533000E9008091F000877F8093F00078940E94CC
:10534000BF291092E9008091F00088608093F000FE
:10535000CD2BCF70C093E900FF91EF91DF91CF91FA
:10536000BF91AF919F918F917F916F915F914F917D
:105370003F912F910F900FBE0F901F9018951F9384
:10538000CF93DF93CDB7DEB7AA970FB6F894DEBF01
:105390000FBECDBF8DEA92E0FC0101962091F10095
:1053A000208322E0853B9207B9F70E944F25809128
:1053B000E80083FF16C18091AD029091AE029A3051
:1053C00008F00FC1E92FF0E0E750F34D0C947E2C6C
:1053D000803881F0823809F004C18091B1028F7069
:1053E0008093E9008091EB0085FB882780F910927B
:1053F000E90006C08091A9029091AA0291118260F1
:105400009091E800977F9093E8008093F1001092CC
:10541000F1008091E8008E77E0C0882309F4CEC0C7
:10542000823009F0DEC08091AF028111D1C080913D
:10543000B1028F7009F4D5C08093E9002091EB0090
:1054400020FFC6C0933031F48091EB0080628093DE
:10545000EB00BEC09091EB0090619093EB0021E0D7
:1054600030E001C0220F8A95EAF72093EA001092FB
:10547000EA008091EB008860EACF8111B2C0109100
:10548000AF021F778091E3008078812B8093E30047
:105490008091E800877F8093E8000E94DD2780915B
:1054A000E80080FFFCCF8091E30080688093E300F8
:1054B00082E0111183E08093AC0293C08058823067
:1054C00008F08FC08091AF029091B0028C3D23E034
:1054D0009207A1F583E08A838AE289834FB7F89423
:1054E000DE01139620E03EE051E2E32FF0E050931E
:1054F0005700E49120FF03C0E295EF703F5FEF702B
:105500008E2F90E0EA30C0F0C7968D939D932F5F69
:10551000243159F74FBF8091E800877F8093E800DE
:105520006AE270E0CE0101960E94F4268091E800C4
:105530008B778093E80055C0C096E7CFAE014F5FF0
:105540005F4F6091B1020E943926BC01892B09F49A
:1055500048C08091E800877F8093E80089819A8124
:105560000E944E27E3CF8038E1F58091E800877FE5
:105570008093E8008091A8028093F1004ACF8111C6
:1055800030C09091AF02923060F58091E800877F43
:105590008093E8009093A8020E94DD278091A802E2
:1055A000882311F084E005C08091E30087FDFACFE5
:1055B00081E08093AC020E943B2513C08091AF0232
:1055C000813079F481E0933009F080E08093AA0281
:1055D0001092E9008091E800877F8093E8000E94A4
:1055E000DD278091E80083FF0AC08091E800877F73
:1055F0008093E8008091EB0080628093EB00AA9694
:105600000FB6F894DEBF0FBECDBFDF91CF911F91D3
:1056100008950895CF938091AC028823A1F0C091A2
:10562000E900CF709091EC00892F817090FD80E8A7
:10563000C82B1092E9008091E80083FD0E94BF29E9
:10564000CF70C093E900CF9108950E942C2B6894ED
:10565000B1110C94BB2B08950E94A02B88F09F578A
:1056600098F0B92F9927B751B0F0E1F0660F771F86
:10567000881F991F1AF0BA95C9F714C0B13091F07C
:105680000E94BA2BB1E008950C94BA2B672F782FA3
:105690008827B85F39F0B93FCCF386957795679541
:1056A000B395D9F73EF490958095709561957F4FAD
:1056B0008F4F9F4F0895E89409C097FB3EF4909553
:1056C0008095709561957F4F8F4F9F4F9923A9F0DB
:1056D000F92F96E9BB279395F6958795779567956A
:1056E000B795F111F8CFFAF4BB0F11F460FF1BC0AE
:1056F0006F5F7F4F8F4F9F4F16C0882311F096E941
:1057000011C0772321F09EE8872F762F05C06623EE
:1057100071F096E8862F70E060E02AF09A95660FA7
:10572000771F881FDAF7880F9695879597F9089560
:1057300057FD9058440F551F59F05F3F71F0479542
:10574000880F97FB991F61F09F3F79F08795089527
:10575000121613061406551FF2CF4695F1DF08C046
:10576000161617061806991FF1CF86957105610563
:1057700008940895E894BB2766277727CB0197F90B
:1057800008950E94D42B0C94452C0E94372C38F09D
:105790000E943E2C20F0952311F00C942E2C0C949A
:1057A000342C11240C94BB2B0E94982B70F3959FE2
:1057B000C1F3950F50E0551F629FF001729FBB2708
:1057C000F00DB11D639FAA27F00DB11DAA1F649FA4
:1057D0006627B00DA11D661F829F2227B00DA11D57
:1057E000621F739FB00DA11D621F839FA00D611DDD
:1057F000221F749F3327A00D611D231F849F600DFE
:10580000211D822F762F6A2F11249F5750409AF026
:10581000F1F088234AF0EE0FFF1FBB1F661F771FB2
:10582000881F91505040A9F79E3F510580F00C947D
:105830002E2C0C94BB2B5F3FE4F3983ED4F386955B
:1058400077956795B795F795E7959F5FC1F7FE2B1D
:10585000880F911D9695879597F9089597F99F67F9
:1058600080E870E060E008959FEF80EC08950024E8
:105870000A941616170618060906089500240A94B5
:1058800012161306140605060895092E0394000C3B
:1058900011F4882352F0BB0F40F4BF2B11F460FFCA
:1058A00004C06F5F7F4F8F4F9F4F0895AA1BBB1B94
:1058B00051E107C0AA1FBB1FA617B70710F0A61B10
:1058C000B70B881F991F5A95A9F780959095BC0131
:1058D000CD01089597FB072E16F4009407D077FDAD
:1058E00009D00E94562C07FC05D03EF49095819576
:1058F0009F4F0895709561957F4F0895EE0FFF1F9C
:105900000590F491E02D0994F999FECF92BD81BDE7
:10591000F89A992780B50895A6E1B0E044E050E0F8
:105920000C94BE2CA8E1B0E042E050E00C94BE2CF8
:10593000262FF999FECF92BD81BDF89A019700B448
:10594000021639F01FBA20BD0FB6F894FA9AF99AE8
:105950000FBE08950396272F0E94992C0E94982C21
:10596000252F0E94992C242F0C94992C0196272FD7
:105970000E94992C0C94982CDC01CB01FC01F99924
:10598000FECF06C0F2BDE1BDF89A319600B40D928B
:1059900041505040B8F70895F894FFCF3A093F09B5
:1059A000440949094E0953095809B009D5095D0947
:1059B00069096D097109750979097D0981098509E7
:1059C00089098D099109950999099D09A109A509D7
:1059D000A909AB15AB150316031647166316DB159D
:1059E000DB156E16DB1536173617A117DB15DB1521
:1059F000AA17E8290D2AF12A0D2AF12A3D2A5E2A42
:065A0000F12AB32ABF2ABF
:105A0600FF14022808140A321E4324D324B0247932
:105A160024462401F0F1F4F5F6F79395949697341D
:105A260035366667323331909192404D36392410BF
:0E5A3600D70FA10F680FFB0E140F2D0F460F98
:00000001FF
